:03000000020006F5
:10005F00750B30750C31750D32750E33750F347598
:10006F0010357511367512377513387514397515B6
:10007F0041751642751743751844751945751A461B
:06008F00751B00020003D6
:03000300020341B4
:10009500858280C2A6C2A5D2A7900064120181C242
:1000A500A71200ACD2A722900064020181758238A4
:1000B50012009575820E12009575820112009575D4
:1000C5008280020095858280D2A6C2A5D2A7900023
:1000D5000A120181C2A71200ACD2A722AD82AE835B
:1000E500AFF0C007C006C00512035EAB82AC83D07B
:1000F50005D006D007EB60278D828E838FF0120323
:1001050076FCA3AD82AE838C82C007C006C005C055
:10011500031200CAD003D005D006D0071B80D62213
:10012500AF82BF02087582C0120095800675828075
:100135001200957F00C3EF9508500D758214C00716
:10014500120095D0070F80ED22AE82AF837C007D33
:10015500007A007B00C3EA9EEB64808FF063F08039
:1001650095F050070ABA00ED0B80EA0CBC00010DB2
:10017500C3EC94E8ED6480948340D622AE82AF83CD
:100185007C007D00C3EC9EED64808FF063F080956C
:10019500F050070CBC00ED0D80EA22E4F51CF51DBE
:1001A50074FEF590B59002805E9003E812018174AB
:1001B500FEB590028046750901750A00E59054F078
:1001C500F51E7470B51E02801574B0B51E0280163A
:1001D50074D0B51E02801774E0B51E20801875090D
:1001E50004750A008016750903750A00800E7509E5
:1001F50002750A008006750901750A0074FEB5903E
:10020500FB751C01751D0074FDF590B59002805EAF
:100215009003E812018174FDB590028046750905C9
:10022500750A00E59054F0F51E7470B51E02801530
:1002350074B0B51E02801674D0B51E02801774E026
:10024500B51E208018750908750A008016750907FE
:10025500750A00800E750906750A00800675090580
:10026500750A0074FEB590FB751C01751D0074FBC5
:10027500F590B59002805E9003E812018174FBB59C
:1002850090028046750909750A00E59054F0F51E3F
:100295007470B51E02801574B0B51E02801674D038
:1002A500B51E02801774E0B51E20801875090C75FF
:1002B5000A00801675090B750A00800E75090A7506
:1002C5000A008006750909750A0074FEB590FB756C
:1002D5001C01751D0074F7F590B59001229003E897
:1002E50012018174F7B59002804675090D750A00F3
:1002F500E59054F0F51E7470B51E02801574B0B506
:100305001E02801674D0B51E02801774E0B51E203B
:100315008018750910750A00801675090F750A0091
:10032500800E75090E750A00800675090D750A009F
:1003350074FEB590FB751C01751D00221200B212EA
:1003450001A0E51C451D60F7E4F51CF51DE5092434
:090355000BF987821200CA80E650
:06003500E478FFF6D8FD9F
:100013007900E94400601B7A00900396780175A08B
:1000230000E493F2A308B8000205A0D9F4DAF2754C
:02003300A0FF2C
:10003B007800E84400600A790175A000E4F309D860
:10004B00FC7800E84400600C7900900001E4F0A318
:04005B00D8FCD9FAFA
:10035E00AA82AB831203766003A380F8C3E5829A68
:08036E00F582E5839BF5832273
:0D00060075811E120392E582600302000363
:1003760020F71430F6148883A88220F507E6A883B0
:1003860075830022E280F7E49322E0227582002240
:00000001FF
