:060000000200190200CB12
:03000B000200BE32
:03001300020113D4
:06007200750800020016F3
:030016000201E8FC
:20007800AE82AF837C007D007A007B00C3EA9EEB64808FF063F08095F050070ABA00ED0B14
:2000980080EA0CBC00010DC3EC9464ED6480948040D622AF82BF0A005007EF9002DB93F50F
:2000B800802275800022C28DC28C758C4C758A00D28C32C020C0E0C0F0C082C083C007C0BA
:2000D80006C005C004C003C002C001C000C0D075D000C2AF9000021200780508D2AFD0D0E3
:2000F800D000D001D002D003D004D005D006D007D083D082D0F0D0E0D02032C020C0E0C0D5
:20011800F0C082C083C007C006C005C004C003C002C001C000C0D075D000C2AF900002124C
:2001380000781508D2AFD0D0D000D001D002D003D004D005D006D007D083D082D0F0D0E040
:20015800D02032AF827E008F047D0075090A8D0A8C828D83C006C005C004120269AA82D0A1
:2001780004D00575090A750A008C828D83C00212029FAC82D002D0068C07EE540124FF9293
:20019800A2EE03540124FF92A3EE0303540124FF92A48A82C007C0061200AB90000112006C
:2001B800781200BAD006D0070EBE0300409922D2B2D2B3D2A8D288D2AAD28AD2AF5389F06A
:1B01D800438901758C4C758A00C28DD28CD2A9221201C785088212015B80F8DA
:0A02DB003F065B4F666D7D077F6FE5
:06004800E478FFF6D8FD8C
:200026007900E94400601B7A009002E5780175A000E493F2A308B8000205A0D9F4DAF27599
:02004600A0FF19
:2001F300E509450A60467A01E50925E0F509E50A334012F50AE5829509E583950A40030AD1
:2002130080E6C3E50A13F50AE50913F509C3E5829509F5F0E583950A4005F58385F082C377
:0D023300E50A13F50AE50913F509DAE122E1
:20004E007800E84400600A790175A000E4F309D8FC7800E84400600C7900900001E4F0A3B0
:04006E00D8FCD9FAE7
:200240007A10E4FBFCE58225E0F582E58333F583EB33FBEC33FCEB9509F5F0EC950A4006D0
:09026000FCABF0438201DADD225F
:0D0019007581201202D7E5826003020016F7
:20026900C2D5E58330E70DD2D5E4C39582F582E49583F583E50A30E70BE4C39509F509E4CA
:16028900950AF50A1201F330D50BE4C39582F582E49583F58322E0
:20029F00C2D5E58330E70DD2D5E4C39582F582E49583F583E50A30E70DB2D5E4C39509F5F8
:1802BF0009E4950AF50A12024030D50BE4C39582F582E49583F583226D
:0402D700758200220A
:00000001FF
